{
  "_format": "hh-sol-artifact-1",
  "contractName": "NFTMarket",
  "sourceName": "contracts/NFTMarket.sol",
  "abi": [
    {
      "inputs": [],
      "stateMutability": "nonpayable",
      "type": "constructor"
    },
    {
      "anonymous": false,
      "inputs": [
        {
          "indexed": true,
          "internalType": "address",
          "name": "owner",
          "type": "address"
        },
        {
          "indexed": true,
          "internalType": "address",
          "name": "approved",
          "type": "address"
        },
        {
          "indexed": true,
          "internalType": "uint256",
          "name": "tokenId",
          "type": "uint256"
        }
      ],
      "name": "Approval",
      "type": "event"
    },
    {
      "anonymous": false,
      "inputs": [
        {
          "indexed": true,
          "internalType": "address",
          "name": "owner",
          "type": "address"
        },
        {
          "indexed": true,
          "internalType": "address",
          "name": "operator",
          "type": "address"
        },
        {
          "indexed": false,
          "internalType": "bool",
          "name": "approved",
          "type": "bool"
        }
      ],
      "name": "ApprovalForAll",
      "type": "event"
    },
    {
      "anonymous": false,
      "inputs": [
        {
          "indexed": false,
          "internalType": "uint256",
          "name": "tokenID",
          "type": "uint256"
        },
        {
          "indexed": false,
          "internalType": "address",
          "name": "from",
          "type": "address"
        },
        {
          "indexed": false,
          "internalType": "address",
          "name": "to",
          "type": "address"
        },
        {
          "indexed": false,
          "internalType": "string",
          "name": "tokenURI",
          "type": "string"
        },
        {
          "indexed": false,
          "internalType": "uint256",
          "name": "price",
          "type": "uint256"
        }
      ],
      "name": "NFTTransfer",
      "type": "event"
    },
    {
      "anonymous": false,
      "inputs": [
        {
          "indexed": true,
          "internalType": "address",
          "name": "previousOwner",
          "type": "address"
        },
        {
          "indexed": true,
          "internalType": "address",
          "name": "newOwner",
          "type": "address"
        }
      ],
      "name": "OwnershipTransferred",
      "type": "event"
    },
    {
      "anonymous": false,
      "inputs": [
        {
          "indexed": true,
          "internalType": "address",
          "name": "from",
          "type": "address"
        },
        {
          "indexed": true,
          "internalType": "address",
          "name": "to",
          "type": "address"
        },
        {
          "indexed": true,
          "internalType": "uint256",
          "name": "tokenId",
          "type": "uint256"
        }
      ],
      "name": "Transfer",
      "type": "event"
    },
    {
      "inputs": [
        {
          "internalType": "address",
          "name": "to",
          "type": "address"
        },
        {
          "internalType": "uint256",
          "name": "tokenId",
          "type": "uint256"
        }
      ],
      "name": "approve",
      "outputs": [],
      "stateMutability": "nonpayable",
      "type": "function"
    },
    {
      "inputs": [
        {
          "internalType": "address",
          "name": "owner",
          "type": "address"
        }
      ],
      "name": "balanceOf",
      "outputs": [
        {
          "internalType": "uint256",
          "name": "",
          "type": "uint256"
        }
      ],
      "stateMutability": "view",
      "type": "function"
    },
    {
      "inputs": [
        {
          "internalType": "uint256",
          "name": "tokenID",
          "type": "uint256"
        }
      ],
      "name": "buyNFT",
      "outputs": [],
      "stateMutability": "payable",
      "type": "function"
    },
    {
      "inputs": [
        {
          "internalType": "uint256",
          "name": "tokenID",
          "type": "uint256"
        }
      ],
      "name": "cancelListing",
      "outputs": [],
      "stateMutability": "nonpayable",
      "type": "function"
    },
    {
      "inputs": [
        {
          "internalType": "string",
          "name": "tokenURI",
          "type": "string"
        }
      ],
      "name": "createNFT",
      "outputs": [],
      "stateMutability": "nonpayable",
      "type": "function"
    },
    {
      "inputs": [
        {
          "internalType": "uint256",
          "name": "tokenId",
          "type": "uint256"
        }
      ],
      "name": "getApproved",
      "outputs": [
        {
          "internalType": "address",
          "name": "",
          "type": "address"
        }
      ],
      "stateMutability": "view",
      "type": "function"
    },
    {
      "inputs": [
        {
          "internalType": "address",
          "name": "owner",
          "type": "address"
        },
        {
          "internalType": "address",
          "name": "operator",
          "type": "address"
        }
      ],
      "name": "isApprovedForAll",
      "outputs": [
        {
          "internalType": "bool",
          "name": "",
          "type": "bool"
        }
      ],
      "stateMutability": "view",
      "type": "function"
    },
    {
      "inputs": [
        {
          "internalType": "uint256",
          "name": "tokenID",
          "type": "uint256"
        },
        {
          "internalType": "uint256",
          "name": "price",
          "type": "uint256"
        }
      ],
      "name": "listNFT",
      "outputs": [],
      "stateMutability": "nonpayable",
      "type": "function"
    },
    {
      "inputs": [],
      "name": "name",
      "outputs": [
        {
          "internalType": "string",
          "name": "",
          "type": "string"
        }
      ],
      "stateMutability": "view",
      "type": "function"
    },
    {
      "inputs": [],
      "name": "owner",
      "outputs": [
        {
          "internalType": "address",
          "name": "",
          "type": "address"
        }
      ],
      "stateMutability": "view",
      "type": "function"
    },
    {
      "inputs": [
        {
          "internalType": "uint256",
          "name": "tokenId",
          "type": "uint256"
        }
      ],
      "name": "ownerOf",
      "outputs": [
        {
          "internalType": "address",
          "name": "",
          "type": "address"
        }
      ],
      "stateMutability": "view",
      "type": "function"
    },
    {
      "inputs": [],
      "name": "renounceOwnership",
      "outputs": [],
      "stateMutability": "nonpayable",
      "type": "function"
    },
    {
      "inputs": [
        {
          "internalType": "address",
          "name": "from",
          "type": "address"
        },
        {
          "internalType": "address",
          "name": "to",
          "type": "address"
        },
        {
          "internalType": "uint256",
          "name": "tokenId",
          "type": "uint256"
        }
      ],
      "name": "safeTransferFrom",
      "outputs": [],
      "stateMutability": "nonpayable",
      "type": "function"
    },
    {
      "inputs": [
        {
          "internalType": "address",
          "name": "from",
          "type": "address"
        },
        {
          "internalType": "address",
          "name": "to",
          "type": "address"
        },
        {
          "internalType": "uint256",
          "name": "tokenId",
          "type": "uint256"
        },
        {
          "internalType": "bytes",
          "name": "data",
          "type": "bytes"
        }
      ],
      "name": "safeTransferFrom",
      "outputs": [],
      "stateMutability": "nonpayable",
      "type": "function"
    },
    {
      "inputs": [
        {
          "internalType": "address",
          "name": "operator",
          "type": "address"
        },
        {
          "internalType": "bool",
          "name": "approved",
          "type": "bool"
        }
      ],
      "name": "setApprovalForAll",
      "outputs": [],
      "stateMutability": "nonpayable",
      "type": "function"
    },
    {
      "inputs": [
        {
          "internalType": "bytes4",
          "name": "interfaceId",
          "type": "bytes4"
        }
      ],
      "name": "supportsInterface",
      "outputs": [
        {
          "internalType": "bool",
          "name": "",
          "type": "bool"
        }
      ],
      "stateMutability": "view",
      "type": "function"
    },
    {
      "inputs": [],
      "name": "symbol",
      "outputs": [
        {
          "internalType": "string",
          "name": "",
          "type": "string"
        }
      ],
      "stateMutability": "view",
      "type": "function"
    },
    {
      "inputs": [
        {
          "internalType": "uint256",
          "name": "tokenId",
          "type": "uint256"
        }
      ],
      "name": "tokenURI",
      "outputs": [
        {
          "internalType": "string",
          "name": "",
          "type": "string"
        }
      ],
      "stateMutability": "view",
      "type": "function"
    },
    {
      "inputs": [
        {
          "internalType": "address",
          "name": "from",
          "type": "address"
        },
        {
          "internalType": "address",
          "name": "to",
          "type": "address"
        },
        {
          "internalType": "uint256",
          "name": "tokenId",
          "type": "uint256"
        }
      ],
      "name": "transferFrom",
      "outputs": [],
      "stateMutability": "nonpayable",
      "type": "function"
    },
    {
      "inputs": [
        {
          "internalType": "address",
          "name": "newOwner",
          "type": "address"
        }
      ],
      "name": "transferOwnership",
      "outputs": [],
      "stateMutability": "nonpayable",
      "type": "function"
    },
    {
      "inputs": [],
      "name": "withdrawFunds",
      "outputs": [],
      "stateMutability": "nonpayable",
      "type": "function"
    }
  ],
  "bytecode": "0x60806040523480156200001157600080fd5b506040518060400160405280600c81526020017f4162646f752773204e46547300000000000000000000000000000000000000008152506040518060400160405280600481526020017f414e46540000000000000000000000000000000000000000000000000000000081525081600090816200008f919062000412565b508060019081620000a1919062000412565b505050620000c4620000b8620000ca60201b60201c565b620000d260201b60201c565b620004f9565b600033905090565b6000600760009054906101000a900473ffffffffffffffffffffffffffffffffffffffff16905081600760006101000a81548173ffffffffffffffffffffffffffffffffffffffff021916908373ffffffffffffffffffffffffffffffffffffffff1602179055508173ffffffffffffffffffffffffffffffffffffffff168173ffffffffffffffffffffffffffffffffffffffff167f8be0079c531659141344cd1fd0a4f28419497f9722a3daafe3b4186f6b6457e060405160405180910390a35050565b600081519050919050565b7f4e487b7100000000000000000000000000000000000000000000000000000000600052604160045260246000fd5b7f4e487b7100000000000000000000000000000000000000000000000000000000600052602260045260246000fd5b600060028204905060018216806200021a57607f821691505b60208210810362000230576200022f620001d2565b5b50919050565b60008190508160005260206000209050919050565b60006020601f8301049050919050565b600082821b905092915050565b6000600883026200029a7fffffffffffffffffffffffffffffffffffffffffffffffffffffffffffffffff826200025b565b620002a686836200025b565b95508019841693508086168417925050509392505050565b6000819050919050565b6000819050919050565b6000620002f3620002ed620002e784620002be565b620002c8565b620002be565b9050919050565b6000819050919050565b6200030f83620002d2565b620003276200031e82620002fa565b84845462000268565b825550505050565b600090565b6200033e6200032f565b6200034b81848462000304565b505050565b5b8181101562000373576200036760008262000334565b60018101905062000351565b5050565b601f821115620003c2576200038c8162000236565b62000397846200024b565b81016020851015620003a7578190505b620003bf620003b6856200024b565b83018262000350565b50505b505050565b600082821c905092915050565b6000620003e760001984600802620003c7565b1980831691505092915050565b6000620004028383620003d4565b9150826002028217905092915050565b6200041d8262000198565b67ffffffffffffffff811115620004395762000438620001a3565b5b62000445825462000201565b6200045282828562000377565b600060209050601f8311600181146200048a576000841562000475578287015190505b620004818582620003f4565b865550620004f1565b601f1984166200049a8662000236565b60005b82811015620004c4578489015182556001820191506020850194506020810190506200049d565b86831015620004e45784890151620004e0601f891682620003d4565b8355505b6001600288020188555050505b505050505050565b613cf880620005096000396000f3fe60806040526004361061012a5760003560e01c806370a08231116100ab578063a22cb4651161006f578063a22cb465146103bb578063b88d4fde146103e4578063c87b56dd1461040d578063da2ed03e1461044a578063e985e9c514610473578063f2fde38b146104b05761012a565b806370a08231146102e8578063715018a6146103255780638da5cb5b1461033c57806394383f141461036757806395d89b41146103905761012a565b806324600fc3116100f257806324600fc314610226578063305a67a81461023d57806342842e0e1461026657806351ed82881461028f5780636352211e146102ab5761012a565b806301ffc9a71461012f57806306fdde031461016c578063081812fc14610197578063095ea7b3146101d457806323b872dd146101fd575b600080fd5b34801561013b57600080fd5b50610156600480360381019061015191906125b6565b6104d9565b60405161016391906125fe565b60405180910390f35b34801561017857600080fd5b506101816105bb565b60405161018e91906126a9565b60405180910390f35b3480156101a357600080fd5b506101be60048036038101906101b99190612701565b61064d565b6040516101cb919061276f565b60405180910390f35b3480156101e057600080fd5b506101fb60048036038101906101f691906127b6565b610693565b005b34801561020957600080fd5b50610224600480360381019061021f91906127f6565b6107aa565b005b34801561023257600080fd5b5061023b61080a565b005b34801561024957600080fd5b50610264600480360381019061025f9190612701565b6108a4565b005b34801561027257600080fd5b5061028d600480360381019061028891906127f6565b610a99565b005b6102a960048036038101906102a49190612701565b610ab9565b005b3480156102b757600080fd5b506102d260048036038101906102cd9190612701565b610cf7565b6040516102df919061276f565b60405180910390f35b3480156102f457600080fd5b5061030f600480360381019061030a9190612849565b610d7d565b60405161031c9190612885565b60405180910390f35b34801561033157600080fd5b5061033a610e34565b005b34801561034857600080fd5b50610351610e48565b60405161035e919061276f565b60405180910390f35b34801561037357600080fd5b5061038e600480360381019061038991906128a0565b610e72565b005b34801561039c57600080fd5b506103a5610f93565b6040516103b291906126a9565b60405180910390f35b3480156103c757600080fd5b506103e260048036038101906103dd919061290c565b611025565b005b3480156103f057600080fd5b5061040b60048036038101906104069190612a81565b61103b565b005b34801561041957600080fd5b50610434600480360381019061042f9190612701565b61109d565b60405161044191906126a9565b60405180910390f35b34801561045657600080fd5b50610471600480360381019061046c9190612b64565b6111af565b005b34801561047f57600080fd5b5061049a60048036038101906104959190612bb1565b611267565b6040516104a791906125fe565b60405180910390f35b3480156104bc57600080fd5b506104d760048036038101906104d29190612849565b6112fb565b005b60007f80ac58cd000000000000000000000000000000000000000000000000000000007bffffffffffffffffffffffffffffffffffffffffffffffffffffffff1916827bffffffffffffffffffffffffffffffffffffffffffffffffffffffff191614806105a457507f5b5e139f000000000000000000000000000000000000000000000000000000007bffffffffffffffffffffffffffffffffffffffffffffffffffffffff1916827bffffffffffffffffffffffffffffffffffffffffffffffffffffffff1916145b806105b457506105b38261137e565b5b9050919050565b6060600080546105ca90612c20565b80601f01602080910402602001604051908101604052809291908181526020018280546105f690612c20565b80156106435780601f1061061857610100808354040283529160200191610643565b820191906000526020600020905b81548152906001019060200180831161062657829003601f168201915b5050505050905090565b6000610658826113e8565b6004600083815260200190815260200160002060009054906101000a900473ffffffffffffffffffffffffffffffffffffffff169050919050565b600061069e82610cf7565b90508073ffffffffffffffffffffffffffffffffffffffff168373ffffffffffffffffffffffffffffffffffffffff160361070e576040517f08c379a000000000000000000000000000000000000000000000000000000000815260040161070590612cc3565b60405180910390fd5b8073ffffffffffffffffffffffffffffffffffffffff1661072d611433565b73ffffffffffffffffffffffffffffffffffffffff16148061075c575061075b81610756611433565b611267565b5b61079b576040517f08c379a000000000000000000000000000000000000000000000000000000000815260040161079290612d55565b60405180910390fd5b6107a5838361143b565b505050565b6107bb6107b5611433565b826114f4565b6107fa576040517f08c379a00000000000000000000000000000000000000000000000000000000081526004016107f190612de7565b60405180910390fd5b610805838383611589565b505050565b610812611882565b60004790506000811161085a576040517f08c379a000000000000000000000000000000000000000000000000000000000815260040161085190612e53565b60405180910390fd5b3373ffffffffffffffffffffffffffffffffffffffff166108fc829081150290604051600060405180830381858888f193505050501580156108a0573d6000803e3d6000fd5b5050565b600060096000838152602001908152602001600020604051806040016040529081600082015481526020016001820160009054906101000a900473ffffffffffffffffffffffffffffffffffffffff1673ffffffffffffffffffffffffffffffffffffffff1673ffffffffffffffffffffffffffffffffffffffff16815250509050600081600001511161096d576040517f08c379a000000000000000000000000000000000000000000000000000000000815260040161096490612ee5565b60405180910390fd5b3373ffffffffffffffffffffffffffffffffffffffff16816020015173ffffffffffffffffffffffffffffffffffffffff16146109df576040517f08c379a00000000000000000000000000000000000000000000000000000000081526004016109d690612f51565b60405180910390fd5b3073ffffffffffffffffffffffffffffffffffffffff166323b872dd3033856040518463ffffffff1660e01b8152600401610a1c93929190612f71565b600060405180830381600087803b158015610a3657600080fd5b505af1158015610a4a573d6000803e3d6000fd5b50505050610a5782611900565b7f705332a8918666802fc1504f63ff1f002a5f6cedd30d59ad7ae0b5281aeb8dca8230336000604051610a8d9493929190613013565b60405180910390a15050565b610ab48383836040518060200160405280600081525061103b565b505050565b600060096000838152602001908152602001600020604051806040016040529081600082015481526020016001820160009054906101000a900473ffffffffffffffffffffffffffffffffffffffff1673ffffffffffffffffffffffffffffffffffffffff1673ffffffffffffffffffffffffffffffffffffffff168152505090506000816000015111610b82576040517f08c379a0000000000000000000000000000000000000000000000000000000008152600401610b7990612ee5565b60405180910390fd5b80600001513414610bc8576040517f08c379a0000000000000000000000000000000000000000000000000000000008152600401610bbf906130b7565b60405180910390fd5b3073ffffffffffffffffffffffffffffffffffffffff166323b872dd3033856040518463ffffffff1660e01b8152600401610c0593929190612f71565b600060405180830381600087803b158015610c1f57600080fd5b505af1158015610c33573d6000803e3d6000fd5b50505050610c4082611900565b806020015173ffffffffffffffffffffffffffffffffffffffff166108fc610c896064610c7b605f866000015161197590919063ffffffff16565b61198b90919063ffffffff16565b9081150290604051600060405180830381858888f19350505050158015610cb4573d6000803e3d6000fd5b507f705332a8918666802fc1504f63ff1f002a5f6cedd30d59ad7ae0b5281aeb8dca8230336000604051610ceb9493929190613013565b60405180910390a15050565b600080610d03836119a1565b9050600073ffffffffffffffffffffffffffffffffffffffff168173ffffffffffffffffffffffffffffffffffffffff1603610d74576040517f08c379a0000000000000000000000000000000000000000000000000000000008152600401610d6b90613123565b60405180910390fd5b80915050919050565b60008073ffffffffffffffffffffffffffffffffffffffff168273ffffffffffffffffffffffffffffffffffffffff1603610ded576040517f08c379a0000000000000000000000000000000000000000000000000000000008152600401610de4906131b5565b60405180910390fd5b600360008373ffffffffffffffffffffffffffffffffffffffff1673ffffffffffffffffffffffffffffffffffffffff168152602001908152602001600020549050919050565b610e3c611882565b610e4660006119de565b565b6000600760009054906101000a900473ffffffffffffffffffffffffffffffffffffffff16905090565b60008111610eb5576040517f08c379a0000000000000000000000000000000000000000000000000000000008152600401610eac90613247565b60405180910390fd5b610ec03330846107aa565b60405180604001604052808281526020013373ffffffffffffffffffffffffffffffffffffffff16815250600960008481526020019081526020016000206000820151816000015560208201518160010160006101000a81548173ffffffffffffffffffffffffffffffffffffffff021916908373ffffffffffffffffffffffffffffffffffffffff1602179055509050507f705332a8918666802fc1504f63ff1f002a5f6cedd30d59ad7ae0b5281aeb8dca82333084604051610f879493929190613267565b60405180910390a15050565b606060018054610fa290612c20565b80601f0160208091040260200160405190810160405280929190818152602001828054610fce90612c20565b801561101b5780601f10610ff05761010080835404028352916020019161101b565b820191906000526020600020905b815481529060010190602001808311610ffe57829003601f168201915b5050505050905090565b611037611030611433565b8383611aa4565b5050565b61104c611046611433565b836114f4565b61108b576040517f08c379a000000000000000000000000000000000000000000000000000000000815260040161108290612de7565b60405180910390fd5b61109784848484611c10565b50505050565b60606110a8826113e8565b60006006600084815260200190815260200160002080546110c890612c20565b80601f01602080910402602001604051908101604052809291908181526020018280546110f490612c20565b80156111415780601f1061111657610100808354040283529160200191611141565b820191906000526020600020905b81548152906001019060200180831161112457829003601f168201915b505050505090506000611152611c6c565b905060008151036111675781925050506111aa565b60008251111561119c5780826040516020016111849291906132fb565b604051602081830303815290604052925050506111aa565b6111a584611c83565b925050505b919050565b6111b96008611ceb565b60006111c56008611d01565b90506111d13382611d0f565b61121f8184848080601f016020809104026020016040519081016040528093929190818152602001838380828437600081840152601f19601f82011690508083019250505050505050611d2d565b7f705332a8918666802fc1504f63ff1f002a5f6cedd30d59ad7ae0b5281aeb8dca816000338686600060405161125a9695949392919061334c565b60405180910390a1505050565b6000600560008473ffffffffffffffffffffffffffffffffffffffff1673ffffffffffffffffffffffffffffffffffffffff16815260200190815260200160002060008373ffffffffffffffffffffffffffffffffffffffff1673ffffffffffffffffffffffffffffffffffffffff16815260200190815260200160002060009054906101000a900460ff16905092915050565b611303611882565b600073ffffffffffffffffffffffffffffffffffffffff168173ffffffffffffffffffffffffffffffffffffffff1603611372576040517f08c379a00000000000000000000000000000000000000000000000000000000081526004016113699061341a565b60405180910390fd5b61137b816119de565b50565b60007f01ffc9a7000000000000000000000000000000000000000000000000000000007bffffffffffffffffffffffffffffffffffffffffffffffffffffffff1916827bffffffffffffffffffffffffffffffffffffffffffffffffffffffff1916149050919050565b6113f181611d9a565b611430576040517f08c379a000000000000000000000000000000000000000000000000000000000815260040161142790613123565b60405180910390fd5b50565b600033905090565b816004600083815260200190815260200160002060006101000a81548173ffffffffffffffffffffffffffffffffffffffff021916908373ffffffffffffffffffffffffffffffffffffffff160217905550808273ffffffffffffffffffffffffffffffffffffffff166114ae83610cf7565b73ffffffffffffffffffffffffffffffffffffffff167f8c5be1e5ebec7d5bd14f71427d1e84f3dd0314c0f7b2291e5b200ac8c7c3b92560405160405180910390a45050565b60008061150083610cf7565b90508073ffffffffffffffffffffffffffffffffffffffff168473ffffffffffffffffffffffffffffffffffffffff16148061154257506115418185611267565b5b8061158057508373ffffffffffffffffffffffffffffffffffffffff166115688461064d565b73ffffffffffffffffffffffffffffffffffffffff16145b91505092915050565b8273ffffffffffffffffffffffffffffffffffffffff166115a982610cf7565b73ffffffffffffffffffffffffffffffffffffffff16146115ff576040517f08c379a00000000000000000000000000000000000000000000000000000000081526004016115f6906134ac565b60405180910390fd5b600073ffffffffffffffffffffffffffffffffffffffff168273ffffffffffffffffffffffffffffffffffffffff160361166e576040517f08c379a00000000000000000000000000000000000000000000000000000000081526004016116659061353e565b60405180910390fd5b61167b8383836001611ddb565b8273ffffffffffffffffffffffffffffffffffffffff1661169b82610cf7565b73ffffffffffffffffffffffffffffffffffffffff16146116f1576040517f08c379a00000000000000000000000000000000000000000000000000000000081526004016116e8906134ac565b60405180910390fd5b6004600082815260200190815260200160002060006101000a81549073ffffffffffffffffffffffffffffffffffffffff02191690556001600360008573ffffffffffffffffffffffffffffffffffffffff1673ffffffffffffffffffffffffffffffffffffffff168152602001908152602001600020600082825403925050819055506001600360008473ffffffffffffffffffffffffffffffffffffffff1673ffffffffffffffffffffffffffffffffffffffff16815260200190815260200160002060008282540192505081905550816002600083815260200190815260200160002060006101000a81548173ffffffffffffffffffffffffffffffffffffffff021916908373ffffffffffffffffffffffffffffffffffffffff160217905550808273ffffffffffffffffffffffffffffffffffffffff168473ffffffffffffffffffffffffffffffffffffffff167fddf252ad1be2c89b69c2b068fc378daa952ba7f163c4a11628f55a4df523b3ef60405160405180910390a461187d8383836001611f01565b505050565b61188a611433565b73ffffffffffffffffffffffffffffffffffffffff166118a8610e48565b73ffffffffffffffffffffffffffffffffffffffff16146118fe576040517f08c379a00000000000000000000000000000000000000000000000000000000081526004016118f5906135aa565b60405180910390fd5b565b6000600960008381526020019081526020016000206000018190555060006009600083815260200190815260200160002060010160006101000a81548173ffffffffffffffffffffffffffffffffffffffff021916908373ffffffffffffffffffffffffffffffffffffffff16021790555050565b6000818361198391906135f9565b905092915050565b60008183611999919061366a565b905092915050565b60006002600083815260200190815260200160002060009054906101000a900473ffffffffffffffffffffffffffffffffffffffff169050919050565b6000600760009054906101000a900473ffffffffffffffffffffffffffffffffffffffff16905081600760006101000a81548173ffffffffffffffffffffffffffffffffffffffff021916908373ffffffffffffffffffffffffffffffffffffffff1602179055508173ffffffffffffffffffffffffffffffffffffffff168173ffffffffffffffffffffffffffffffffffffffff167f8be0079c531659141344cd1fd0a4f28419497f9722a3daafe3b4186f6b6457e060405160405180910390a35050565b8173ffffffffffffffffffffffffffffffffffffffff168373ffffffffffffffffffffffffffffffffffffffff1603611b12576040517f08c379a0000000000000000000000000000000000000000000000000000000008152600401611b09906136e7565b60405180910390fd5b80600560008573ffffffffffffffffffffffffffffffffffffffff1673ffffffffffffffffffffffffffffffffffffffff16815260200190815260200160002060008473ffffffffffffffffffffffffffffffffffffffff1673ffffffffffffffffffffffffffffffffffffffff16815260200190815260200160002060006101000a81548160ff0219169083151502179055508173ffffffffffffffffffffffffffffffffffffffff168373ffffffffffffffffffffffffffffffffffffffff167f17307eab39ab6107e8899845ad3d59bd9653f200f220920489ca2b5937696c3183604051611c0391906125fe565b60405180910390a3505050565b611c1b848484611589565b611c2784848484611f07565b611c66576040517f08c379a0000000000000000000000000000000000000000000000000000000008152600401611c5d90613779565b60405180910390fd5b50505050565b606060405180602001604052806000815250905090565b6060611c8e826113e8565b6000611c98611c6c565b90506000815111611cb85760405180602001604052806000815250611ce3565b80611cc28461208e565b604051602001611cd39291906132fb565b6040516020818303038152906040525b915050919050565b6001816000016000828254019250508190555050565b600081600001549050919050565b611d2982826040518060200160405280600081525061215c565b5050565b611d3682611d9a565b611d75576040517f08c379a0000000000000000000000000000000000000000000000000000000008152600401611d6c9061380b565b60405180910390fd5b80600660008481526020019081526020016000209081611d9591906139cd565b505050565b60008073ffffffffffffffffffffffffffffffffffffffff16611dbc836119a1565b73ffffffffffffffffffffffffffffffffffffffff1614159050919050565b6001811115611efb57600073ffffffffffffffffffffffffffffffffffffffff168473ffffffffffffffffffffffffffffffffffffffff1614611e6f5780600360008673ffffffffffffffffffffffffffffffffffffffff1673ffffffffffffffffffffffffffffffffffffffff1681526020019081526020016000206000828254611e679190613a9f565b925050819055505b600073ffffffffffffffffffffffffffffffffffffffff168373ffffffffffffffffffffffffffffffffffffffff1614611efa5780600360008573ffffffffffffffffffffffffffffffffffffffff1673ffffffffffffffffffffffffffffffffffffffff1681526020019081526020016000206000828254611ef29190613ad3565b925050819055505b5b50505050565b50505050565b6000611f288473ffffffffffffffffffffffffffffffffffffffff166121b7565b15612081578373ffffffffffffffffffffffffffffffffffffffff1663150b7a02611f51611433565b8786866040518563ffffffff1660e01b8152600401611f739493929190613b5c565b6020604051808303816000875af1925050508015611faf57506040513d601f19601f82011682018060405250810190611fac9190613bbd565b60015b612031573d8060008114611fdf576040519150601f19603f3d011682016040523d82523d6000602084013e611fe4565b606091505b506000815103612029576040517f08c379a000000000000000000000000000000000000000000000000000000000815260040161202090613779565b60405180910390fd5b805181602001fd5b63150b7a0260e01b7bffffffffffffffffffffffffffffffffffffffffffffffffffffffff1916817bffffffffffffffffffffffffffffffffffffffffffffffffffffffff191614915050612086565b600190505b949350505050565b60606000600161209d846121da565b01905060008167ffffffffffffffff8111156120bc576120bb612956565b5b6040519080825280601f01601f1916602001820160405280156120ee5781602001600182028036833780820191505090505b509050600082602001820190505b600115612151578080600190039150507f3031323334353637383961626364656600000000000000000000000000000000600a86061a8153600a85816121455761214461363b565b5b049450600085036120fc575b819350505050919050565b612166838361232d565b6121736000848484611f07565b6121b2576040517f08c379a00000000000000000000000000000000000000000000000000000000081526004016121a990613779565b60405180910390fd5b505050565b6000808273ffffffffffffffffffffffffffffffffffffffff163b119050919050565b600080600090507a184f03e93ff9f4daa797ed6e38ed64bf6a1f0100000000000000008310612238577a184f03e93ff9f4daa797ed6e38ed64bf6a1f010000000000000000838161222e5761222d61363b565b5b0492506040810190505b6d04ee2d6d415b85acef81000000008310612275576d04ee2d6d415b85acef8100000000838161226b5761226a61363b565b5b0492506020810190505b662386f26fc1000083106122a457662386f26fc10000838161229a5761229961363b565b5b0492506010810190505b6305f5e10083106122cd576305f5e10083816122c3576122c261363b565b5b0492506008810190505b61271083106122f25761271083816122e8576122e761363b565b5b0492506004810190505b60648310612315576064838161230b5761230a61363b565b5b0492506002810190505b600a8310612324576001810190505b80915050919050565b600073ffffffffffffffffffffffffffffffffffffffff168273ffffffffffffffffffffffffffffffffffffffff160361239c576040517f08c379a000000000000000000000000000000000000000000000000000000000815260040161239390613c36565b60405180910390fd5b6123a581611d9a565b156123e5576040517f08c379a00000000000000000000000000000000000000000000000000000000081526004016123dc90613ca2565b60405180910390fd5b6123f3600083836001611ddb565b6123fc81611d9a565b1561243c576040517f08c379a000000000000000000000000000000000000000000000000000000000815260040161243390613ca2565b60405180910390fd5b6001600360008473ffffffffffffffffffffffffffffffffffffffff1673ffffffffffffffffffffffffffffffffffffffff16815260200190815260200160002060008282540192505081905550816002600083815260200190815260200160002060006101000a81548173ffffffffffffffffffffffffffffffffffffffff021916908373ffffffffffffffffffffffffffffffffffffffff160217905550808273ffffffffffffffffffffffffffffffffffffffff16600073ffffffffffffffffffffffffffffffffffffffff167fddf252ad1be2c89b69c2b068fc378daa952ba7f163c4a11628f55a4df523b3ef60405160405180910390a4612546600083836001611f01565b5050565b6000604051905090565b600080fd5b600080fd5b60007fffffffff0000000000000000000000000000000000000000000000000000000082169050919050565b6125938161255e565b811461259e57600080fd5b50565b6000813590506125b08161258a565b92915050565b6000602082840312156125cc576125cb612554565b5b60006125da848285016125a1565b91505092915050565b60008115159050919050565b6125f8816125e3565b82525050565b600060208201905061261360008301846125ef565b92915050565b600081519050919050565b600082825260208201905092915050565b60005b83811015612653578082015181840152602081019050612638565b60008484015250505050565b6000601f19601f8301169050919050565b600061267b82612619565b6126858185612624565b9350612695818560208601612635565b61269e8161265f565b840191505092915050565b600060208201905081810360008301526126c38184612670565b905092915050565b6000819050919050565b6126de816126cb565b81146126e957600080fd5b50565b6000813590506126fb816126d5565b92915050565b60006020828403121561271757612716612554565b5b6000612725848285016126ec565b91505092915050565b600073ffffffffffffffffffffffffffffffffffffffff82169050919050565b60006127598261272e565b9050919050565b6127698161274e565b82525050565b60006020820190506127846000830184612760565b92915050565b6127938161274e565b811461279e57600080fd5b50565b6000813590506127b08161278a565b92915050565b600080604083850312156127cd576127cc612554565b5b60006127db858286016127a1565b92505060206127ec858286016126ec565b9150509250929050565b60008060006060848603121561280f5761280e612554565b5b600061281d868287016127a1565b935050602061282e868287016127a1565b925050604061283f868287016126ec565b9150509250925092565b60006020828403121561285f5761285e612554565b5b600061286d848285016127a1565b91505092915050565b61287f816126cb565b82525050565b600060208201905061289a6000830184612876565b92915050565b600080604083850312156128b7576128b6612554565b5b60006128c5858286016126ec565b92505060206128d6858286016126ec565b9150509250929050565b6128e9816125e3565b81146128f457600080fd5b50565b600081359050612906816128e0565b92915050565b6000806040838503121561292357612922612554565b5b6000612931858286016127a1565b9250506020612942858286016128f7565b9150509250929050565b600080fd5b600080fd5b7f4e487b7100000000000000000000000000000000000000000000000000000000600052604160045260246000fd5b61298e8261265f565b810181811067ffffffffffffffff821117156129ad576129ac612956565b5b80604052505050565b60006129c061254a565b90506129cc8282612985565b919050565b600067ffffffffffffffff8211156129ec576129eb612956565b5b6129f58261265f565b9050602081019050919050565b82818337600083830152505050565b6000612a24612a1f846129d1565b6129b6565b905082815260208101848484011115612a4057612a3f612951565b5b612a4b848285612a02565b509392505050565b600082601f830112612a6857612a6761294c565b5b8135612a78848260208601612a11565b91505092915050565b60008060008060808587031215612a9b57612a9a612554565b5b6000612aa9878288016127a1565b9450506020612aba878288016127a1565b9350506040612acb878288016126ec565b925050606085013567ffffffffffffffff811115612aec57612aeb612559565b5b612af887828801612a53565b91505092959194509250565b600080fd5b600080fd5b60008083601f840112612b2457612b2361294c565b5b8235905067ffffffffffffffff811115612b4157612b40612b04565b5b602083019150836001820283011115612b5d57612b5c612b09565b5b9250929050565b60008060208385031215612b7b57612b7a612554565b5b600083013567ffffffffffffffff811115612b9957612b98612559565b5b612ba585828601612b0e565b92509250509250929050565b60008060408385031215612bc857612bc7612554565b5b6000612bd6858286016127a1565b9250506020612be7858286016127a1565b9150509250929050565b7f4e487b7100000000000000000000000000000000000000000000000000000000600052602260045260246000fd5b60006002820490506001821680612c3857607f821691505b602082108103612c4b57612c4a612bf1565b5b50919050565b7f4552433732313a20617070726f76616c20746f2063757272656e74206f776e6560008201527f7200000000000000000000000000000000000000000000000000000000000000602082015250565b6000612cad602183612624565b9150612cb882612c51565b604082019050919050565b60006020820190508181036000830152612cdc81612ca0565b9050919050565b7f4552433732313a20617070726f76652063616c6c6572206973206e6f7420746f60008201527f6b656e206f776e6572206f7220617070726f76656420666f7220616c6c000000602082015250565b6000612d3f603d83612624565b9150612d4a82612ce3565b604082019050919050565b60006020820190508181036000830152612d6e81612d32565b9050919050565b7f4552433732313a2063616c6c6572206973206e6f7420746f6b656e206f776e6560008201527f72206f7220617070726f76656400000000000000000000000000000000000000602082015250565b6000612dd1602d83612624565b9150612ddc82612d75565b604082019050919050565b60006020820190508181036000830152612e0081612dc4565b9050919050565b7f4e46544d61726b65743a2062616c616e6365206973207a65726f000000000000600082015250565b6000612e3d601a83612624565b9150612e4882612e07565b602082019050919050565b60006020820190508181036000830152612e6c81612e30565b9050919050565b7f4e46544d61726b65743a206e6674206e6f74206c697374656420666f7220736160008201527f6c65000000000000000000000000000000000000000000000000000000000000602082015250565b6000612ecf602283612624565b9150612eda82612e73565b604082019050919050565b60006020820190508181036000830152612efe81612ec2565b9050919050565b7f4e46544d61726b65743a20796f75277265206e6f74207468652073656c6c6572600082015250565b6000612f3b602083612624565b9150612f4682612f05565b602082019050919050565b60006020820190508181036000830152612f6a81612f2e565b9050919050565b6000606082019050612f866000830186612760565b612f936020830185612760565b612fa06040830184612876565b949350505050565b50565b6000612fb8600083612624565b9150612fc382612fa8565b600082019050919050565b6000819050919050565b6000819050919050565b6000612ffd612ff8612ff384612fce565b612fd8565b6126cb565b9050919050565b61300d81612fe2565b82525050565b600060a0820190506130286000830187612876565b6130356020830186612760565b6130426040830185612760565b818103606083015261305381612fab565b90506130626080830184613004565b95945050505050565b7f4e46544d61726b65743a20696e636f7272656374207072696365000000000000600082015250565b60006130a1601a83612624565b91506130ac8261306b565b602082019050919050565b600060208201905081810360008301526130d081613094565b9050919050565b7f4552433732313a20696e76616c696420746f6b656e2049440000000000000000600082015250565b600061310d601883612624565b9150613118826130d7565b602082019050919050565b6000602082019050818103600083015261313c81613100565b9050919050565b7f4552433732313a2061646472657373207a65726f206973206e6f74206120766160008201527f6c6964206f776e65720000000000000000000000000000000000000000000000602082015250565b600061319f602983612624565b91506131aa82613143565b604082019050919050565b600060208201905081810360008301526131ce81613192565b9050919050565b7f4e46544d61726b65743a207072696365206d757374206265206772656174657260008201527f207468616e203000000000000000000000000000000000000000000000000000602082015250565b6000613231602783612624565b915061323c826131d5565b604082019050919050565b6000602082019050818103600083015261326081613224565b9050919050565b600060a08201905061327c6000830187612876565b6132896020830186612760565b6132966040830185612760565b81810360608301526132a781612fab565b90506132b66080830184612876565b95945050505050565b600081905092915050565b60006132d582612619565b6132df81856132bf565b93506132ef818560208601612635565b80840191505092915050565b600061330782856132ca565b915061331382846132ca565b91508190509392505050565b600061332b8385612624565b9350613338838584612a02565b6133418361265f565b840190509392505050565b600060a0820190506133616000830189612876565b61336e6020830188612760565b61337b6040830187612760565b818103606083015261338e81858761331f565b905061339d6080830184613004565b979650505050505050565b7f4f776e61626c653a206e6577206f776e657220697320746865207a65726f206160008201527f6464726573730000000000000000000000000000000000000000000000000000602082015250565b6000613404602683612624565b915061340f826133a8565b604082019050919050565b60006020820190508181036000830152613433816133f7565b9050919050565b7f4552433732313a207472616e736665722066726f6d20696e636f72726563742060008201527f6f776e6572000000000000000000000000000000000000000000000000000000602082015250565b6000613496602583612624565b91506134a18261343a565b604082019050919050565b600060208201905081810360008301526134c581613489565b9050919050565b7f4552433732313a207472616e7366657220746f20746865207a65726f2061646460008201527f7265737300000000000000000000000000000000000000000000000000000000602082015250565b6000613528602483612624565b9150613533826134cc565b604082019050919050565b600060208201905081810360008301526135578161351b565b9050919050565b7f4f776e61626c653a2063616c6c6572206973206e6f7420746865206f776e6572600082015250565b6000613594602083612624565b915061359f8261355e565b602082019050919050565b600060208201905081810360008301526135c381613587565b9050919050565b7f4e487b7100000000000000000000000000000000000000000000000000000000600052601160045260246000fd5b6000613604826126cb565b915061360f836126cb565b925082820261361d816126cb565b91508282048414831517613634576136336135ca565b5b5092915050565b7f4e487b7100000000000000000000000000000000000000000000000000000000600052601260045260246000fd5b6000613675826126cb565b9150613680836126cb565b9250826136905761368f61363b565b5b828204905092915050565b7f4552433732313a20617070726f766520746f2063616c6c657200000000000000600082015250565b60006136d1601983612624565b91506136dc8261369b565b602082019050919050565b60006020820190508181036000830152613700816136c4565b9050919050565b7f4552433732313a207472616e7366657220746f206e6f6e20455243373231526560008201527f63656976657220696d706c656d656e7465720000000000000000000000000000602082015250565b6000613763603283612624565b915061376e82613707565b604082019050919050565b6000602082019050818103600083015261379281613756565b9050919050565b7f45524337323155524953746f726167653a2055524920736574206f66206e6f6e60008201527f6578697374656e7420746f6b656e000000000000000000000000000000000000602082015250565b60006137f5602e83612624565b915061380082613799565b604082019050919050565b60006020820190508181036000830152613824816137e8565b9050919050565b60008190508160005260206000209050919050565b60006020601f8301049050919050565b600082821b905092915050565b60006008830261388d7fffffffffffffffffffffffffffffffffffffffffffffffffffffffffffffffff82613850565b6138978683613850565b95508019841693508086168417925050509392505050565b60006138ca6138c56138c0846126cb565b612fd8565b6126cb565b9050919050565b6000819050919050565b6138e4836138af565b6138f86138f0826138d1565b84845461385d565b825550505050565b600090565b61390d613900565b6139188184846138db565b505050565b5b8181101561393c57613931600082613905565b60018101905061391e565b5050565b601f821115613981576139528161382b565b61395b84613840565b8101602085101561396a578190505b61397e61397685613840565b83018261391d565b50505b505050565b600082821c905092915050565b60006139a460001984600802613986565b1980831691505092915050565b60006139bd8383613993565b9150826002028217905092915050565b6139d682612619565b67ffffffffffffffff8111156139ef576139ee612956565b5b6139f98254612c20565b613a04828285613940565b600060209050601f831160018114613a375760008415613a25578287015190505b613a2f85826139b1565b865550613a97565b601f198416613a458661382b565b60005b82811015613a6d57848901518255600182019150602085019450602081019050613a48565b86831015613a8a5784890151613a86601f891682613993565b8355505b6001600288020188555050505b505050505050565b6000613aaa826126cb565b9150613ab5836126cb565b9250828203905081811115613acd57613acc6135ca565b5b92915050565b6000613ade826126cb565b9150613ae9836126cb565b9250828201905080821115613b0157613b006135ca565b5b92915050565b600081519050919050565b600082825260208201905092915050565b6000613b2e82613b07565b613b388185613b12565b9350613b48818560208601612635565b613b518161265f565b840191505092915050565b6000608082019050613b716000830187612760565b613b7e6020830186612760565b613b8b6040830185612876565b8181036060830152613b9d8184613b23565b905095945050505050565b600081519050613bb78161258a565b92915050565b600060208284031215613bd357613bd2612554565b5b6000613be184828501613ba8565b91505092915050565b7f4552433732313a206d696e7420746f20746865207a65726f2061646472657373600082015250565b6000613c20602083612624565b9150613c2b82613bea565b602082019050919050565b60006020820190508181036000830152613c4f81613c13565b9050919050565b7f4552433732313a20746f6b656e20616c7265616479206d696e74656400000000600082015250565b6000613c8c601c83612624565b9150613c9782613c56565b602082019050919050565b60006020820190508181036000830152613cbb81613c7f565b905091905056fea2646970667358221220074112d078c23ba9285ea0b39a8812a3d2954f25d289be225052db618e3134f264736f6c63430008110033",
  "linkReferences": {},
  "deployedLinkReferences": {}
}