{
  "_format": "hh-sol-artifact-1",
  "contractName": "RealEstate",
  "sourceName": "contracts/RealEstateNFT.sol",
  "abi": [
    {
      "inputs": [],
      "stateMutability": "nonpayable",
      "type": "constructor"
    },
    {
      "anonymous": false,
      "inputs": [
        {
          "indexed": true,
          "internalType": "address",
          "name": "owner",
          "type": "address"
        },
        {
          "indexed": true,
          "internalType": "address",
          "name": "approved",
          "type": "address"
        },
        {
          "indexed": true,
          "internalType": "uint256",
          "name": "tokenId",
          "type": "uint256"
        }
      ],
      "name": "Approval",
      "type": "event"
    },
    {
      "anonymous": false,
      "inputs": [
        {
          "indexed": true,
          "internalType": "address",
          "name": "owner",
          "type": "address"
        },
        {
          "indexed": true,
          "internalType": "address",
          "name": "operator",
          "type": "address"
        },
        {
          "indexed": false,
          "internalType": "bool",
          "name": "approved",
          "type": "bool"
        }
      ],
      "name": "ApprovalForAll",
      "type": "event"
    },
    {
      "anonymous": false,
      "inputs": [
        {
          "indexed": true,
          "internalType": "address",
          "name": "from",
          "type": "address"
        },
        {
          "indexed": true,
          "internalType": "address",
          "name": "to",
          "type": "address"
        },
        {
          "indexed": true,
          "internalType": "uint256",
          "name": "tokenId",
          "type": "uint256"
        }
      ],
      "name": "Transfer",
      "type": "event"
    },
    {
      "inputs": [
        {
          "internalType": "address",
          "name": "to",
          "type": "address"
        },
        {
          "internalType": "uint256",
          "name": "tokenId",
          "type": "uint256"
        }
      ],
      "name": "approve",
      "outputs": [],
      "stateMutability": "nonpayable",
      "type": "function"
    },
    {
      "inputs": [
        {
          "internalType": "address",
          "name": "owner",
          "type": "address"
        }
      ],
      "name": "balanceOf",
      "outputs": [
        {
          "internalType": "uint256",
          "name": "",
          "type": "uint256"
        }
      ],
      "stateMutability": "view",
      "type": "function"
    },
    {
      "inputs": [
        {
          "internalType": "uint256",
          "name": "tokenId",
          "type": "uint256"
        }
      ],
      "name": "getApproved",
      "outputs": [
        {
          "internalType": "address",
          "name": "",
          "type": "address"
        }
      ],
      "stateMutability": "view",
      "type": "function"
    },
    {
      "inputs": [
        {
          "internalType": "address",
          "name": "owner",
          "type": "address"
        },
        {
          "internalType": "address",
          "name": "operator",
          "type": "address"
        }
      ],
      "name": "isApprovedForAll",
      "outputs": [
        {
          "internalType": "bool",
          "name": "",
          "type": "bool"
        }
      ],
      "stateMutability": "view",
      "type": "function"
    },
    {
      "inputs": [
        {
          "internalType": "string",
          "name": "tokenURI",
          "type": "string"
        }
      ],
      "name": "mint",
      "outputs": [
        {
          "internalType": "uint256",
          "name": "",
          "type": "uint256"
        }
      ],
      "stateMutability": "nonpayable",
      "type": "function"
    },
    {
      "inputs": [],
      "name": "name",
      "outputs": [
        {
          "internalType": "string",
          "name": "",
          "type": "string"
        }
      ],
      "stateMutability": "view",
      "type": "function"
    },
    {
      "inputs": [
        {
          "internalType": "uint256",
          "name": "tokenId",
          "type": "uint256"
        }
      ],
      "name": "ownerOf",
      "outputs": [
        {
          "internalType": "address",
          "name": "",
          "type": "address"
        }
      ],
      "stateMutability": "view",
      "type": "function"
    },
    {
      "inputs": [
        {
          "internalType": "address",
          "name": "from",
          "type": "address"
        },
        {
          "internalType": "address",
          "name": "to",
          "type": "address"
        },
        {
          "internalType": "uint256",
          "name": "tokenId",
          "type": "uint256"
        }
      ],
      "name": "safeTransferFrom",
      "outputs": [],
      "stateMutability": "nonpayable",
      "type": "function"
    },
    {
      "inputs": [
        {
          "internalType": "address",
          "name": "from",
          "type": "address"
        },
        {
          "internalType": "address",
          "name": "to",
          "type": "address"
        },
        {
          "internalType": "uint256",
          "name": "tokenId",
          "type": "uint256"
        },
        {
          "internalType": "bytes",
          "name": "data",
          "type": "bytes"
        }
      ],
      "name": "safeTransferFrom",
      "outputs": [],
      "stateMutability": "nonpayable",
      "type": "function"
    },
    {
      "inputs": [
        {
          "internalType": "address",
          "name": "operator",
          "type": "address"
        },
        {
          "internalType": "bool",
          "name": "approved",
          "type": "bool"
        }
      ],
      "name": "setApprovalForAll",
      "outputs": [],
      "stateMutability": "nonpayable",
      "type": "function"
    },
    {
      "inputs": [
        {
          "internalType": "bytes4",
          "name": "interfaceId",
          "type": "bytes4"
        }
      ],
      "name": "supportsInterface",
      "outputs": [
        {
          "internalType": "bool",
          "name": "",
          "type": "bool"
        }
      ],
      "stateMutability": "view",
      "type": "function"
    },
    {
      "inputs": [],
      "name": "symbol",
      "outputs": [
        {
          "internalType": "string",
          "name": "",
          "type": "string"
        }
      ],
      "stateMutability": "view",
      "type": "function"
    },
    {
      "inputs": [
        {
          "internalType": "uint256",
          "name": "tokenId",
          "type": "uint256"
        }
      ],
      "name": "tokenURI",
      "outputs": [
        {
          "internalType": "string",
          "name": "",
          "type": "string"
        }
      ],
      "stateMutability": "view",
      "type": "function"
    },
    {
      "inputs": [],
      "name": "totalSupply",
      "outputs": [
        {
          "internalType": "uint256",
          "name": "",
          "type": "uint256"
        }
      ],
      "stateMutability": "view",
      "type": "function"
    },
    {
      "inputs": [
        {
          "internalType": "address",
          "name": "from",
          "type": "address"
        },
        {
          "internalType": "address",
          "name": "to",
          "type": "address"
        },
        {
          "internalType": "uint256",
          "name": "tokenId",
          "type": "uint256"
        }
      ],
      "name": "transferFrom",
      "outputs": [],
      "stateMutability": "nonpayable",
      "type": "function"
    }
  ],
  "bytecode": "0x60806040523480156200001157600080fd5b506040518060400160405280600b81526020017f5265616c204573746174650000000000000000000000000000000000000000008152506040518060400160405280600481526020017f5245414c0000000000000000000000000000000000000000000000000000000081525081600090816200008f919062000324565b508060019081620000a1919062000324565b5050506200040b565b600081519050919050565b7f4e487b7100000000000000000000000000000000000000000000000000000000600052604160045260246000fd5b7f4e487b7100000000000000000000000000000000000000000000000000000000600052602260045260246000fd5b600060028204905060018216806200012c57607f821691505b602082108103620001425762000141620000e4565b5b50919050565b60008190508160005260206000209050919050565b60006020601f8301049050919050565b600082821b905092915050565b600060088302620001ac7fffffffffffffffffffffffffffffffffffffffffffffffffffffffffffffffff826200016d565b620001b886836200016d565b95508019841693508086168417925050509392505050565b6000819050919050565b6000819050919050565b600062000205620001ff620001f984620001d0565b620001da565b620001d0565b9050919050565b6000819050919050565b6200022183620001e4565b6200023962000230826200020c565b8484546200017a565b825550505050565b600090565b6200025062000241565b6200025d81848462000216565b505050565b5b8181101562000285576200027960008262000246565b60018101905062000263565b5050565b601f821115620002d4576200029e8162000148565b620002a9846200015d565b81016020851015620002b9578190505b620002d1620002c8856200015d565b83018262000262565b50505b505050565b600082821c905092915050565b6000620002f960001984600802620002d9565b1980831691505092915050565b6000620003148383620002e6565b9150826002028217905092915050565b6200032f82620000aa565b67ffffffffffffffff8111156200034b576200034a620000b5565b5b62000357825462000113565b6200036482828562000289565b600060209050601f8311600181146200039c576000841562000387578287015190505b62000393858262000306565b86555062000403565b601f198416620003ac8662000148565b60005b82811015620003d657848901518255600182019150602085019450602081019050620003af565b86831015620003f65784890151620003f2601f891682620002e6565b8355505b6001600288020188555050505b505050505050565b612c25806200041b6000396000f3fe608060405234801561001057600080fd5b50600436106100f55760003560e01c80636352211e11610097578063b88d4fde11610066578063b88d4fde14610284578063c87b56dd146102a0578063d85d3d27146102d0578063e985e9c514610300576100f5565b80636352211e146101ea57806370a082311461021a57806395d89b411461024a578063a22cb46514610268576100f5565b8063095ea7b3116100d3578063095ea7b31461017857806318160ddd1461019457806323b872dd146101b257806342842e0e146101ce576100f5565b806301ffc9a7146100fa57806306fdde031461012a578063081812fc14610148575b600080fd5b610114600480360381019061010f9190611a90565b610330565b6040516101219190611ad8565b60405180910390f35b610132610412565b60405161013f9190611b83565b60405180910390f35b610162600480360381019061015d9190611bdb565b6104a4565b60405161016f9190611c49565b60405180910390f35b610192600480360381019061018d9190611c90565b6104ea565b005b61019c610601565b6040516101a99190611cdf565b60405180910390f35b6101cc60048036038101906101c79190611cfa565b610612565b005b6101e860048036038101906101e39190611cfa565b610672565b005b61020460048036038101906101ff9190611bdb565b610692565b6040516102119190611c49565b60405180910390f35b610234600480360381019061022f9190611d4d565b610718565b6040516102419190611cdf565b60405180910390f35b6102526107cf565b60405161025f9190611b83565b60405180910390f35b610282600480360381019061027d9190611da6565b610861565b005b61029e60048036038101906102999190611f1b565b610877565b005b6102ba60048036038101906102b59190611bdb565b6108d9565b6040516102c79190611b83565b60405180910390f35b6102ea60048036038101906102e5919061203f565b6109eb565b6040516102f79190611cdf565b60405180910390f35b61031a60048036038101906103159190612088565b610a22565b6040516103279190611ad8565b60405180910390f35b60007f80ac58cd000000000000000000000000000000000000000000000000000000007bffffffffffffffffffffffffffffffffffffffffffffffffffffffff1916827bffffffffffffffffffffffffffffffffffffffffffffffffffffffff191614806103fb57507f5b5e139f000000000000000000000000000000000000000000000000000000007bffffffffffffffffffffffffffffffffffffffffffffffffffffffff1916827bffffffffffffffffffffffffffffffffffffffffffffffffffffffff1916145b8061040b575061040a82610ab6565b5b9050919050565b606060008054610421906120f7565b80601f016020809104026020016040519081016040528092919081815260200182805461044d906120f7565b801561049a5780601f1061046f5761010080835404028352916020019161049a565b820191906000526020600020905b81548152906001019060200180831161047d57829003601f168201915b5050505050905090565b60006104af82610b20565b6004600083815260200190815260200160002060009054906101000a900473ffffffffffffffffffffffffffffffffffffffff169050919050565b60006104f582610692565b90508073ffffffffffffffffffffffffffffffffffffffff168373ffffffffffffffffffffffffffffffffffffffff1603610565576040517f08c379a000000000000000000000000000000000000000000000000000000000815260040161055c9061219a565b60405180910390fd5b8073ffffffffffffffffffffffffffffffffffffffff16610584610b6b565b73ffffffffffffffffffffffffffffffffffffffff1614806105b357506105b2816105ad610b6b565b610a22565b5b6105f2576040517f08c379a00000000000000000000000000000000000000000000000000000000081526004016105e99061222c565b60405180910390fd5b6105fc8383610b73565b505050565b600061060d6007610c2c565b905090565b61062361061d610b6b565b82610c3a565b610662576040517f08c379a0000000000000000000000000000000000000000000000000000000008152600401610659906122be565b60405180910390fd5b61066d838383610ccf565b505050565b61068d83838360405180602001604052806000815250610877565b505050565b60008061069e83610fc8565b9050600073ffffffffffffffffffffffffffffffffffffffff168173ffffffffffffffffffffffffffffffffffffffff160361070f576040517f08c379a00000000000000000000000000000000000000000000000000000000081526004016107069061232a565b60405180910390fd5b80915050919050565b60008073ffffffffffffffffffffffffffffffffffffffff168273ffffffffffffffffffffffffffffffffffffffff1603610788576040517f08c379a000000000000000000000000000000000000000000000000000000000815260040161077f906123bc565b60405180910390fd5b600360008373ffffffffffffffffffffffffffffffffffffffff1673ffffffffffffffffffffffffffffffffffffffff168152602001908152602001600020549050919050565b6060600180546107de906120f7565b80601f016020809104026020016040519081016040528092919081815260200182805461080a906120f7565b80156108575780601f1061082c57610100808354040283529160200191610857565b820191906000526020600020905b81548152906001019060200180831161083a57829003601f168201915b5050505050905090565b61087361086c610b6b565b8383611005565b5050565b610888610882610b6b565b83610c3a565b6108c7576040517f08c379a00000000000000000000000000000000000000000000000000000000081526004016108be906122be565b60405180910390fd5b6108d384848484611171565b50505050565b60606108e482610b20565b6000600660008481526020019081526020016000208054610904906120f7565b80601f0160208091040260200160405190810160405280929190818152602001828054610930906120f7565b801561097d5780601f106109525761010080835404028352916020019161097d565b820191906000526020600020905b81548152906001019060200180831161096057829003601f168201915b50505050509050600061098e6111cd565b905060008151036109a35781925050506109e6565b6000825111156109d85780826040516020016109c0929190612418565b604051602081830303815290604052925050506109e6565b6109e1846111e4565b925050505b919050565b60006109f7600761124c565b6000610a036007610c2c565b9050610a0f3382611262565b610a19818461147f565b80915050919050565b6000600560008473ffffffffffffffffffffffffffffffffffffffff1673ffffffffffffffffffffffffffffffffffffffff16815260200190815260200160002060008373ffffffffffffffffffffffffffffffffffffffff1673ffffffffffffffffffffffffffffffffffffffff16815260200190815260200160002060009054906101000a900460ff16905092915050565b60007f01ffc9a7000000000000000000000000000000000000000000000000000000007bffffffffffffffffffffffffffffffffffffffffffffffffffffffff1916827bffffffffffffffffffffffffffffffffffffffffffffffffffffffff1916149050919050565b610b29816114ec565b610b68576040517f08c379a0000000000000000000000000000000000000000000000000000000008152600401610b5f9061232a565b60405180910390fd5b50565b600033905090565b816004600083815260200190815260200160002060006101000a81548173ffffffffffffffffffffffffffffffffffffffff021916908373ffffffffffffffffffffffffffffffffffffffff160217905550808273ffffffffffffffffffffffffffffffffffffffff16610be683610692565b73ffffffffffffffffffffffffffffffffffffffff167f8c5be1e5ebec7d5bd14f71427d1e84f3dd0314c0f7b2291e5b200ac8c7c3b92560405160405180910390a45050565b600081600001549050919050565b600080610c4683610692565b90508073ffffffffffffffffffffffffffffffffffffffff168473ffffffffffffffffffffffffffffffffffffffff161480610c885750610c878185610a22565b5b80610cc657508373ffffffffffffffffffffffffffffffffffffffff16610cae846104a4565b73ffffffffffffffffffffffffffffffffffffffff16145b91505092915050565b8273ffffffffffffffffffffffffffffffffffffffff16610cef82610692565b73ffffffffffffffffffffffffffffffffffffffff1614610d45576040517f08c379a0000000000000000000000000000000000000000000000000000000008152600401610d3c906124ae565b60405180910390fd5b600073ffffffffffffffffffffffffffffffffffffffff168273ffffffffffffffffffffffffffffffffffffffff1603610db4576040517f08c379a0000000000000000000000000000000000000000000000000000000008152600401610dab90612540565b60405180910390fd5b610dc1838383600161152d565b8273ffffffffffffffffffffffffffffffffffffffff16610de182610692565b73ffffffffffffffffffffffffffffffffffffffff1614610e37576040517f08c379a0000000000000000000000000000000000000000000000000000000008152600401610e2e906124ae565b60405180910390fd5b6004600082815260200190815260200160002060006101000a81549073ffffffffffffffffffffffffffffffffffffffff02191690556001600360008573ffffffffffffffffffffffffffffffffffffffff1673ffffffffffffffffffffffffffffffffffffffff168152602001908152602001600020600082825403925050819055506001600360008473ffffffffffffffffffffffffffffffffffffffff1673ffffffffffffffffffffffffffffffffffffffff16815260200190815260200160002060008282540192505081905550816002600083815260200190815260200160002060006101000a81548173ffffffffffffffffffffffffffffffffffffffff021916908373ffffffffffffffffffffffffffffffffffffffff160217905550808273ffffffffffffffffffffffffffffffffffffffff168473ffffffffffffffffffffffffffffffffffffffff167fddf252ad1be2c89b69c2b068fc378daa952ba7f163c4a11628f55a4df523b3ef60405160405180910390a4610fc38383836001611653565b505050565b60006002600083815260200190815260200160002060009054906101000a900473ffffffffffffffffffffffffffffffffffffffff169050919050565b8173ffffffffffffffffffffffffffffffffffffffff168373ffffffffffffffffffffffffffffffffffffffff1603611073576040517f08c379a000000000000000000000000000000000000000000000000000000000815260040161106a906125ac565b60405180910390fd5b80600560008573ffffffffffffffffffffffffffffffffffffffff1673ffffffffffffffffffffffffffffffffffffffff16815260200190815260200160002060008473ffffffffffffffffffffffffffffffffffffffff1673ffffffffffffffffffffffffffffffffffffffff16815260200190815260200160002060006101000a81548160ff0219169083151502179055508173ffffffffffffffffffffffffffffffffffffffff168373ffffffffffffffffffffffffffffffffffffffff167f17307eab39ab6107e8899845ad3d59bd9653f200f220920489ca2b5937696c31836040516111649190611ad8565b60405180910390a3505050565b61117c848484610ccf565b61118884848484611659565b6111c7576040517f08c379a00000000000000000000000000000000000000000000000000000000081526004016111be9061263e565b60405180910390fd5b50505050565b606060405180602001604052806000815250905090565b60606111ef82610b20565b60006111f96111cd565b905060008151116112195760405180602001604052806000815250611244565b80611223846117e0565b604051602001611234929190612418565b6040516020818303038152906040525b915050919050565b6001816000016000828254019250508190555050565b600073ffffffffffffffffffffffffffffffffffffffff168273ffffffffffffffffffffffffffffffffffffffff16036112d1576040517f08c379a00000000000000000000000000000000000000000000000000000000081526004016112c8906126aa565b60405180910390fd5b6112da816114ec565b1561131a576040517f08c379a000000000000000000000000000000000000000000000000000000000815260040161131190612716565b60405180910390fd5b61132860008383600161152d565b611331816114ec565b15611371576040517f08c379a000000000000000000000000000000000000000000000000000000000815260040161136890612716565b60405180910390fd5b6001600360008473ffffffffffffffffffffffffffffffffffffffff1673ffffffffffffffffffffffffffffffffffffffff16815260200190815260200160002060008282540192505081905550816002600083815260200190815260200160002060006101000a81548173ffffffffffffffffffffffffffffffffffffffff021916908373ffffffffffffffffffffffffffffffffffffffff160217905550808273ffffffffffffffffffffffffffffffffffffffff16600073ffffffffffffffffffffffffffffffffffffffff167fddf252ad1be2c89b69c2b068fc378daa952ba7f163c4a11628f55a4df523b3ef60405160405180910390a461147b600083836001611653565b5050565b611488826114ec565b6114c7576040517f08c379a00000000000000000000000000000000000000000000000000000000081526004016114be906127a8565b60405180910390fd5b806006600084815260200190815260200160002090816114e79190612974565b505050565b60008073ffffffffffffffffffffffffffffffffffffffff1661150e83610fc8565b73ffffffffffffffffffffffffffffffffffffffff1614159050919050565b600181111561164d57600073ffffffffffffffffffffffffffffffffffffffff168473ffffffffffffffffffffffffffffffffffffffff16146115c15780600360008673ffffffffffffffffffffffffffffffffffffffff1673ffffffffffffffffffffffffffffffffffffffff16815260200190815260200160002060008282546115b99190612a75565b925050819055505b600073ffffffffffffffffffffffffffffffffffffffff168373ffffffffffffffffffffffffffffffffffffffff161461164c5780600360008573ffffffffffffffffffffffffffffffffffffffff1673ffffffffffffffffffffffffffffffffffffffff16815260200190815260200160002060008282546116449190612aa9565b925050819055505b5b50505050565b50505050565b600061167a8473ffffffffffffffffffffffffffffffffffffffff166118ae565b156117d3578373ffffffffffffffffffffffffffffffffffffffff1663150b7a026116a3610b6b565b8786866040518563ffffffff1660e01b81526004016116c59493929190612b32565b6020604051808303816000875af192505050801561170157506040513d601f19601f820116820180604052508101906116fe9190612b93565b60015b611783573d8060008114611731576040519150601f19603f3d011682016040523d82523d6000602084013e611736565b606091505b50600081510361177b576040517f08c379a00000000000000000000000000000000000000000000000000000000081526004016117729061263e565b60405180910390fd5b805181602001fd5b63150b7a0260e01b7bffffffffffffffffffffffffffffffffffffffffffffffffffffffff1916817bffffffffffffffffffffffffffffffffffffffffffffffffffffffff1916149150506117d8565b600190505b949350505050565b6060600060016117ef846118d1565b01905060008167ffffffffffffffff81111561180e5761180d611df0565b5b6040519080825280601f01601f1916602001820160405280156118405781602001600182028036833780820191505090505b509050600082602001820190505b6001156118a3578080600190039150507f3031323334353637383961626364656600000000000000000000000000000000600a86061a8153600a858161189757611896612bc0565b5b0494506000850361184e575b819350505050919050565b6000808273ffffffffffffffffffffffffffffffffffffffff163b119050919050565b600080600090507a184f03e93ff9f4daa797ed6e38ed64bf6a1f010000000000000000831061192f577a184f03e93ff9f4daa797ed6e38ed64bf6a1f010000000000000000838161192557611924612bc0565b5b0492506040810190505b6d04ee2d6d415b85acef8100000000831061196c576d04ee2d6d415b85acef8100000000838161196257611961612bc0565b5b0492506020810190505b662386f26fc10000831061199b57662386f26fc10000838161199157611990612bc0565b5b0492506010810190505b6305f5e10083106119c4576305f5e10083816119ba576119b9612bc0565b5b0492506008810190505b61271083106119e95761271083816119df576119de612bc0565b5b0492506004810190505b60648310611a0c5760648381611a0257611a01612bc0565b5b0492506002810190505b600a8310611a1b576001810190505b80915050919050565b6000604051905090565b600080fd5b600080fd5b60007fffffffff0000000000000000000000000000000000000000000000000000000082169050919050565b611a6d81611a38565b8114611a7857600080fd5b50565b600081359050611a8a81611a64565b92915050565b600060208284031215611aa657611aa5611a2e565b5b6000611ab484828501611a7b565b91505092915050565b60008115159050919050565b611ad281611abd565b82525050565b6000602082019050611aed6000830184611ac9565b92915050565b600081519050919050565b600082825260208201905092915050565b60005b83811015611b2d578082015181840152602081019050611b12565b60008484015250505050565b6000601f19601f8301169050919050565b6000611b5582611af3565b611b5f8185611afe565b9350611b6f818560208601611b0f565b611b7881611b39565b840191505092915050565b60006020820190508181036000830152611b9d8184611b4a565b905092915050565b6000819050919050565b611bb881611ba5565b8114611bc357600080fd5b50565b600081359050611bd581611baf565b92915050565b600060208284031215611bf157611bf0611a2e565b5b6000611bff84828501611bc6565b91505092915050565b600073ffffffffffffffffffffffffffffffffffffffff82169050919050565b6000611c3382611c08565b9050919050565b611c4381611c28565b82525050565b6000602082019050611c5e6000830184611c3a565b92915050565b611c6d81611c28565b8114611c7857600080fd5b50565b600081359050611c8a81611c64565b92915050565b60008060408385031215611ca757611ca6611a2e565b5b6000611cb585828601611c7b565b9250506020611cc685828601611bc6565b9150509250929050565b611cd981611ba5565b82525050565b6000602082019050611cf46000830184611cd0565b92915050565b600080600060608486031215611d1357611d12611a2e565b5b6000611d2186828701611c7b565b9350506020611d3286828701611c7b565b9250506040611d4386828701611bc6565b9150509250925092565b600060208284031215611d6357611d62611a2e565b5b6000611d7184828501611c7b565b91505092915050565b611d8381611abd565b8114611d8e57600080fd5b50565b600081359050611da081611d7a565b92915050565b60008060408385031215611dbd57611dbc611a2e565b5b6000611dcb85828601611c7b565b9250506020611ddc85828601611d91565b9150509250929050565b600080fd5b600080fd5b7f4e487b7100000000000000000000000000000000000000000000000000000000600052604160045260246000fd5b611e2882611b39565b810181811067ffffffffffffffff82111715611e4757611e46611df0565b5b80604052505050565b6000611e5a611a24565b9050611e668282611e1f565b919050565b600067ffffffffffffffff821115611e8657611e85611df0565b5b611e8f82611b39565b9050602081019050919050565b82818337600083830152505050565b6000611ebe611eb984611e6b565b611e50565b905082815260208101848484011115611eda57611ed9611deb565b5b611ee5848285611e9c565b509392505050565b600082601f830112611f0257611f01611de6565b5b8135611f12848260208601611eab565b91505092915050565b60008060008060808587031215611f3557611f34611a2e565b5b6000611f4387828801611c7b565b9450506020611f5487828801611c7b565b9350506040611f6587828801611bc6565b925050606085013567ffffffffffffffff811115611f8657611f85611a33565b5b611f9287828801611eed565b91505092959194509250565b600067ffffffffffffffff821115611fb957611fb8611df0565b5b611fc282611b39565b9050602081019050919050565b6000611fe2611fdd84611f9e565b611e50565b905082815260208101848484011115611ffe57611ffd611deb565b5b612009848285611e9c565b509392505050565b600082601f83011261202657612025611de6565b5b8135612036848260208601611fcf565b91505092915050565b60006020828403121561205557612054611a2e565b5b600082013567ffffffffffffffff81111561207357612072611a33565b5b61207f84828501612011565b91505092915050565b6000806040838503121561209f5761209e611a2e565b5b60006120ad85828601611c7b565b92505060206120be85828601611c7b565b9150509250929050565b7f4e487b7100000000000000000000000000000000000000000000000000000000600052602260045260246000fd5b6000600282049050600182168061210f57607f821691505b602082108103612122576121216120c8565b5b50919050565b7f4552433732313a20617070726f76616c20746f2063757272656e74206f776e6560008201527f7200000000000000000000000000000000000000000000000000000000000000602082015250565b6000612184602183611afe565b915061218f82612128565b604082019050919050565b600060208201905081810360008301526121b381612177565b9050919050565b7f4552433732313a20617070726f76652063616c6c6572206973206e6f7420746f60008201527f6b656e206f776e6572206f7220617070726f76656420666f7220616c6c000000602082015250565b6000612216603d83611afe565b9150612221826121ba565b604082019050919050565b6000602082019050818103600083015261224581612209565b9050919050565b7f4552433732313a2063616c6c6572206973206e6f7420746f6b656e206f776e6560008201527f72206f7220617070726f76656400000000000000000000000000000000000000602082015250565b60006122a8602d83611afe565b91506122b38261224c565b604082019050919050565b600060208201905081810360008301526122d78161229b565b9050919050565b7f4552433732313a20696e76616c696420746f6b656e2049440000000000000000600082015250565b6000612314601883611afe565b915061231f826122de565b602082019050919050565b6000602082019050818103600083015261234381612307565b9050919050565b7f4552433732313a2061646472657373207a65726f206973206e6f74206120766160008201527f6c6964206f776e65720000000000000000000000000000000000000000000000602082015250565b60006123a6602983611afe565b91506123b18261234a565b604082019050919050565b600060208201905081810360008301526123d581612399565b9050919050565b600081905092915050565b60006123f282611af3565b6123fc81856123dc565b935061240c818560208601611b0f565b80840191505092915050565b600061242482856123e7565b915061243082846123e7565b91508190509392505050565b7f4552433732313a207472616e736665722066726f6d20696e636f72726563742060008201527f6f776e6572000000000000000000000000000000000000000000000000000000602082015250565b6000612498602583611afe565b91506124a38261243c565b604082019050919050565b600060208201905081810360008301526124c78161248b565b9050919050565b7f4552433732313a207472616e7366657220746f20746865207a65726f2061646460008201527f7265737300000000000000000000000000000000000000000000000000000000602082015250565b600061252a602483611afe565b9150612535826124ce565b604082019050919050565b600060208201905081810360008301526125598161251d565b9050919050565b7f4552433732313a20617070726f766520746f2063616c6c657200000000000000600082015250565b6000612596601983611afe565b91506125a182612560565b602082019050919050565b600060208201905081810360008301526125c581612589565b9050919050565b7f4552433732313a207472616e7366657220746f206e6f6e20455243373231526560008201527f63656976657220696d706c656d656e7465720000000000000000000000000000602082015250565b6000612628603283611afe565b9150612633826125cc565b604082019050919050565b600060208201905081810360008301526126578161261b565b9050919050565b7f4552433732313a206d696e7420746f20746865207a65726f2061646472657373600082015250565b6000612694602083611afe565b915061269f8261265e565b602082019050919050565b600060208201905081810360008301526126c381612687565b9050919050565b7f4552433732313a20746f6b656e20616c7265616479206d696e74656400000000600082015250565b6000612700601c83611afe565b915061270b826126ca565b602082019050919050565b6000602082019050818103600083015261272f816126f3565b9050919050565b7f45524337323155524953746f726167653a2055524920736574206f66206e6f6e60008201527f6578697374656e7420746f6b656e000000000000000000000000000000000000602082015250565b6000612792602e83611afe565b915061279d82612736565b604082019050919050565b600060208201905081810360008301526127c181612785565b9050919050565b60008190508160005260206000209050919050565b60006020601f8301049050919050565b600082821b905092915050565b60006008830261282a7fffffffffffffffffffffffffffffffffffffffffffffffffffffffffffffffff826127ed565b61283486836127ed565b95508019841693508086168417925050509392505050565b6000819050919050565b600061287161286c61286784611ba5565b61284c565b611ba5565b9050919050565b6000819050919050565b61288b83612856565b61289f61289782612878565b8484546127fa565b825550505050565b600090565b6128b46128a7565b6128bf818484612882565b505050565b5b818110156128e3576128d86000826128ac565b6001810190506128c5565b5050565b601f821115612928576128f9816127c8565b612902846127dd565b81016020851015612911578190505b61292561291d856127dd565b8301826128c4565b50505b505050565b600082821c905092915050565b600061294b6000198460080261292d565b1980831691505092915050565b6000612964838361293a565b9150826002028217905092915050565b61297d82611af3565b67ffffffffffffffff81111561299657612995611df0565b5b6129a082546120f7565b6129ab8282856128e7565b600060209050601f8311600181146129de57600084156129cc578287015190505b6129d68582612958565b865550612a3e565b601f1984166129ec866127c8565b60005b82811015612a14578489015182556001820191506020850194506020810190506129ef565b86831015612a315784890151612a2d601f89168261293a565b8355505b6001600288020188555050505b505050505050565b7f4e487b7100000000000000000000000000000000000000000000000000000000600052601160045260246000fd5b6000612a8082611ba5565b9150612a8b83611ba5565b9250828203905081811115612aa357612aa2612a46565b5b92915050565b6000612ab482611ba5565b9150612abf83611ba5565b9250828201905080821115612ad757612ad6612a46565b5b92915050565b600081519050919050565b600082825260208201905092915050565b6000612b0482612add565b612b0e8185612ae8565b9350612b1e818560208601611b0f565b612b2781611b39565b840191505092915050565b6000608082019050612b476000830187611c3a565b612b546020830186611c3a565b612b616040830185611cd0565b8181036060830152612b738184612af9565b905095945050505050565b600081519050612b8d81611a64565b92915050565b600060208284031215612ba957612ba8611a2e565b5b6000612bb784828501612b7e565b91505092915050565b7f4e487b7100000000000000000000000000000000000000000000000000000000600052601260045260246000fdfea2646970667358221220739093602c4f9cf0e36db27a80387040bf845647be1303f147bb10a1009fd7f664736f6c63430008110033",
  "linkReferences": {},
  "deployedLinkReferences": {}
}